{
  "_format": "hh-sol-artifact-1",
  "contractName": "LookUpContract",
  "sourceName": "contracts/LookUpContract.sol",
  "abi": [
    {
      "anonymous": false,
      "inputs": [
        {
          "indexed": true,
          "internalType": "address",
          "name": "donor",
          "type": "address"
        },
        {
          "indexed": false,
          "internalType": "uint256",
          "name": "amount",
          "type": "uint256"
        }
      ],
      "name": "DonationReceived",
      "type": "event"
    },
    {
      "anonymous": false,
      "inputs": [
        {
          "indexed": true,
          "internalType": "uint256",
          "name": "id",
          "type": "uint256"
        },
        {
          "indexed": true,
          "internalType": "address",
          "name": "owner",
          "type": "address"
        },
        {
          "indexed": true,
          "internalType": "string",
          "name": "token",
          "type": "string"
        }
      ],
      "name": "ERC20TokenListed",
      "type": "event"
    },
    {
      "inputs": [],
      "name": "_donationIndex",
      "outputs": [
        {
          "internalType": "uint256",
          "name": "",
          "type": "uint256"
        }
      ],
      "stateMutability": "view",
      "type": "function"
    },
    {
      "inputs": [],
      "name": "_tokenIndex",
      "outputs": [
        {
          "internalType": "uint256",
          "name": "",
          "type": "uint256"
        }
      ],
      "stateMutability": "view",
      "type": "function"
    },
    {
      "inputs": [
        {
          "internalType": "address",
          "name": "_owner",
          "type": "address"
        },
        {
          "internalType": "string",
          "name": "_tokenSupply",
          "type": "string"
        },
        {
          "internalType": "string",
          "name": "_tokenName",
          "type": "string"
        },
        {
          "internalType": "string",
          "name": "_tokenSymbol",
          "type": "string"
        },
        {
          "internalType": "string",
          "name": "_tokenAddress",
          "type": "string"
        },
        {
          "internalType": "string",
          "name": "_tokenTransactionHash",
          "type": "string"
        },
        {
          "internalType": "string",
          "name": "_tokenCreatedData",
          "type": "string"
        }
      ],
      "name": "createERC20Token",
      "outputs": [
        {
          "internalType": "uint256",
          "name": "",
          "type": "uint256"
        },
        {
          "internalType": "address",
          "name": "",
          "type": "address"
        },
        {
          "internalType": "string",
          "name": "",
          "type": "string"
        },
        {
          "internalType": "string",
          "name": "",
          "type": "string"
        },
        {
          "internalType": "string",
          "name": "",
          "type": "string"
        },
        {
          "internalType": "string",
          "name": "",
          "type": "string"
        }
      ],
      "stateMutability": "payable",
      "type": "function"
    },
    {
      "inputs": [],
      "name": "donate",
      "outputs": [],
      "stateMutability": "payable",
      "type": "function"
    },
    {
      "inputs": [],
      "name": "getAllDonation",
      "outputs": [
        {
          "components": [
            {
              "internalType": "uint256",
              "name": "donationID",
              "type": "uint256"
            },
            {
              "internalType": "address",
              "name": "donor",
              "type": "address"
            },
            {
              "internalType": "uint256",
              "name": "fund",
              "type": "uint256"
            }
          ],
          "internalType": "struct LookUpContract.Donation[]",
          "name": "",
          "type": "tuple[]"
        }
      ],
      "stateMutability": "view",
      "type": "function"
    },
    {
      "inputs": [],
      "name": "getAllERC20TokenListed",
      "outputs": [
        {
          "components": [
            {
              "internalType": "uint256",
              "name": "tokenID",
              "type": "uint256"
            },
            {
              "internalType": "address",
              "name": "owner",
              "type": "address"
            },
            {
              "internalType": "string",
              "name": "tokenSupply",
              "type": "string"
            },
            {
              "internalType": "string",
              "name": "tokenName",
              "type": "string"
            },
            {
              "internalType": "string",
              "name": "tokenSymbol",
              "type": "string"
            },
            {
              "internalType": "string",
              "name": "tokenAddress",
              "type": "string"
            },
            {
              "internalType": "string",
              "name": "tokenTransactionHash",
              "type": "string"
            },
            {
              "internalType": "string",
              "name": "tokenCreatedDate",
              "type": "string"
            }
          ],
          "internalType": "struct LookUpContract.ERC20Token[]",
          "name": "",
          "type": "tuple[]"
        }
      ],
      "stateMutability": "view",
      "type": "function"
    },
    {
      "inputs": [],
      "name": "getContractBalance",
      "outputs": [
        {
          "internalType": "uint256",
          "name": "",
          "type": "uint256"
        }
      ],
      "stateMutability": "view",
      "type": "function"
    },
    {
      "inputs": [
        {
          "internalType": "uint256",
          "name": "_tokenID",
          "type": "uint256"
        }
      ],
      "name": "getERC20Token",
      "outputs": [
        {
          "internalType": "uint256",
          "name": "",
          "type": "uint256"
        },
        {
          "internalType": "address",
          "name": "",
          "type": "address"
        },
        {
          "internalType": "string",
          "name": "",
          "type": "string"
        },
        {
          "internalType": "string",
          "name": "",
          "type": "string"
        },
        {
          "internalType": "string",
          "name": "",
          "type": "string"
        },
        {
          "internalType": "string",
          "name": "",
          "type": "string"
        },
        {
          "internalType": "string",
          "name": "",
          "type": "string"
        },
        {
          "internalType": "string",
          "name": "",
          "type": "string"
        }
      ],
      "stateMutability": "view",
      "type": "function"
    },
    {
      "inputs": [],
      "name": "getERC20TokenListingPrice",
      "outputs": [
        {
          "internalType": "uint256",
          "name": "",
          "type": "uint256"
        }
      ],
      "stateMutability": "view",
      "type": "function"
    },
    {
      "inputs": [
        {
          "internalType": "address",
          "name": "_user",
          "type": "address"
        }
      ],
      "name": "getUserERC20Tokens",
      "outputs": [
        {
          "components": [
            {
              "internalType": "uint256",
              "name": "tokenID",
              "type": "uint256"
            },
            {
              "internalType": "address",
              "name": "owner",
              "type": "address"
            },
            {
              "internalType": "string",
              "name": "tokenSupply",
              "type": "string"
            },
            {
              "internalType": "string",
              "name": "tokenName",
              "type": "string"
            },
            {
              "internalType": "string",
              "name": "tokenSymbol",
              "type": "string"
            },
            {
              "internalType": "string",
              "name": "tokenAddress",
              "type": "string"
            },
            {
              "internalType": "string",
              "name": "tokenTransactionHash",
              "type": "string"
            },
            {
              "internalType": "string",
              "name": "tokenCreatedDate",
              "type": "string"
            }
          ],
          "internalType": "struct LookUpContract.ERC20Token[]",
          "name": "",
          "type": "tuple[]"
        }
      ],
      "stateMutability": "view",
      "type": "function"
    },
    {
      "inputs": [],
      "name": "listingPrice",
      "outputs": [
        {
          "internalType": "uint256",
          "name": "",
          "type": "uint256"
        }
      ],
      "stateMutability": "view",
      "type": "function"
    },
    {
      "inputs": [
        {
          "internalType": "uint256",
          "name": "_listingPrice",
          "type": "uint256"
        },
        {
          "internalType": "address",
          "name": "owner",
          "type": "address"
        }
      ],
      "name": "updateListingPrice",
      "outputs": [],
      "stateMutability": "payable",
      "type": "function"
    },
    {
      "inputs": [],
      "name": "withdraw",
      "outputs": [],
      "stateMutability": "nonpayable",
      "type": "function"
    }
  ],
  "bytecode": "0x608060405273b309098bcb51e5c687a16fa41bd6055f47c9ebb06000806101000a81548173ffffffffffffffffffffffffffffffffffffffff021916908373ffffffffffffffffffffffffffffffffffffffff1602179055506658d15e1762800060015534801561006f57600080fd5b506128a98061007f6000396000f3fe6080604052600436106100c25760003560e01c806380cad5a61161007f578063a581889a11610059578063a581889a14610252578063b5c6e21f14610287578063c78f19f9146102b2578063ed88c68e146102dd576100c2565b806380cad5a6146101ce5780639463c838146101ea578063a218547714610215576100c2565b80630fbf0e31146100c75780631ec4a8b51461010b5780633ccfd60b1461013657806352e9a1a01461014d5780635b7af131146101785780636f9fb98a146101a3575b600080fd5b3480156100d357600080fd5b506100ee60048036038101906100e99190611989565b6102e7565b604051610102989796959493929190611a96565b60405180910390f35b34801561011757600080fd5b50610120610726565b60405161012d9190611b3e565b60405180910390f35b34801561014257600080fd5b5061014b61072c565b005b34801561015957600080fd5b5061016261086c565b60405161016f9190611c68565b60405180910390f35b34801561018457600080fd5b5061018d6109bd565b60405161019a9190611e69565b60405180910390f35b3480156101af57600080fd5b506101b8610e71565b6040516101c59190611b3e565b60405180910390f35b6101e860048036038101906101e39190611eb7565b610f0e565b005b3480156101f657600080fd5b506101ff611035565b60405161020c9190611b3e565b60405180910390f35b34801561022157600080fd5b5061023c60048036038101906102379190611ef7565b61103f565b6040516102499190611e69565b60405180910390f35b61026c60048036038101906102679190612059565b61160c565b60405161027e969594939291906121a3565b60405180910390f35b34801561029357600080fd5b5061029c611781565b6040516102a99190611b3e565b60405180910390f35b3480156102be57600080fd5b506102c7611787565b6040516102d49190611b3e565b60405180910390f35b6102e561178d565b005b6000806060806060806060806000600260008b815260200190815260200160002060405180610100016040529081600082015481526020016001820160009054906101000a900473ffffffffffffffffffffffffffffffffffffffff1673ffffffffffffffffffffffffffffffffffffffff1673ffffffffffffffffffffffffffffffffffffffff1681526020016002820180546103849061224f565b80601f01602080910402602001604051908101604052809291908181526020018280546103b09061224f565b80156103fd5780601f106103d2576101008083540402835291602001916103fd565b820191906000526020600020905b8154815290600101906020018083116103e057829003601f168201915b505050505081526020016003820180546104169061224f565b80601f01602080910402602001604051908101604052809291908181526020018280546104429061224f565b801561048f5780601f106104645761010080835404028352916020019161048f565b820191906000526020600020905b81548152906001019060200180831161047257829003601f168201915b505050505081526020016004820180546104a89061224f565b80601f01602080910402602001604051908101604052809291908181526020018280546104d49061224f565b80156105215780601f106104f657610100808354040283529160200191610521565b820191906000526020600020905b81548152906001019060200180831161050457829003601f168201915b5050505050815260200160058201805461053a9061224f565b80601f01602080910402602001604051908101604052809291908181526020018280546105669061224f565b80156105b35780601f10610588576101008083540402835291602001916105b3565b820191906000526020600020905b81548152906001019060200180831161059657829003601f168201915b505050505081526020016006820180546105cc9061224f565b80601f01602080910402602001604051908101604052809291908181526020018280546105f89061224f565b80156106455780601f1061061a57610100808354040283529160200191610645565b820191906000526020600020905b81548152906001019060200180831161062857829003601f168201915b5050505050815260200160078201805461065e9061224f565b80601f016020809104026020016040519081016040528092919081815260200182805461068a9061224f565b80156106d75780601f106106ac576101008083540402835291602001916106d7565b820191906000526020600020905b8154815290600101906020018083116106ba57829003601f168201915b5050505050815250509050806000015181602001518260400151836060015184608001518560a001518660c001518760e001519850985098509850985098509850985050919395975091939597565b60055481565b60008054906101000a900473ffffffffffffffffffffffffffffffffffffffff1673ffffffffffffffffffffffffffffffffffffffff163373ffffffffffffffffffffffffffffffffffffffff16146107ba576040517f08c379a00000000000000000000000000000000000000000000000000000000081526004016107b1906122f2565b60405180910390fd5b600047905060008111610802576040517f08c379a00000000000000000000000000000000000000000000000000000000081526004016107f990612384565b60405180910390fd5b60008054906101000a900473ffffffffffffffffffffffffffffffffffffffff1673ffffffffffffffffffffffffffffffffffffffff166108fc829081150290604051600060405180830381858888f19350505050158015610868573d6000803e3d6000fd5b5050565b6060600060055490506000808267ffffffffffffffff81111561089257610891611f2e565b5b6040519080825280602002602001820160405280156108cb57816020015b6108b86118ad565b8152602001906001900390816108b05790505b50905060005b838110156109b35760006001826108e891906123d3565b9050600060036000838152602001908152602001600020905080604051806060016040529081600082015481526020016001820160009054906101000a900473ffffffffffffffffffffffffffffffffffffffff1673ffffffffffffffffffffffffffffffffffffffff1673ffffffffffffffffffffffffffffffffffffffff16815260200160028201548152505084868151811061098a57610989612407565b5b60200260200101819052506001856109a291906123d3565b9450505080806001019150506108d1565b5080935050505090565b6060600060045490506000808267ffffffffffffffff8111156109e3576109e2611f2e565b5b604051908082528060200260200182016040528015610a1c57816020015b610a096118e4565b815260200190600190039081610a015790505b50905060005b83811015610e67576000600182610a3991906123d3565b905060006002600083815260200190815260200160002090508060405180610100016040529081600082015481526020016001820160009054906101000a900473ffffffffffffffffffffffffffffffffffffffff1673ffffffffffffffffffffffffffffffffffffffff1673ffffffffffffffffffffffffffffffffffffffff168152602001600282018054610acf9061224f565b80601f0160208091040260200160405190810160405280929190818152602001828054610afb9061224f565b8015610b485780601f10610b1d57610100808354040283529160200191610b48565b820191906000526020600020905b815481529060010190602001808311610b2b57829003601f168201915b50505050508152602001600382018054610b619061224f565b80601f0160208091040260200160405190810160405280929190818152602001828054610b8d9061224f565b8015610bda5780601f10610baf57610100808354040283529160200191610bda565b820191906000526020600020905b815481529060010190602001808311610bbd57829003601f168201915b50505050508152602001600482018054610bf39061224f565b80601f0160208091040260200160405190810160405280929190818152602001828054610c1f9061224f565b8015610c6c5780601f10610c4157610100808354040283529160200191610c6c565b820191906000526020600020905b815481529060010190602001808311610c4f57829003601f168201915b50505050508152602001600582018054610c859061224f565b80601f0160208091040260200160405190810160405280929190818152602001828054610cb19061224f565b8015610cfe5780601f10610cd357610100808354040283529160200191610cfe565b820191906000526020600020905b815481529060010190602001808311610ce157829003601f168201915b50505050508152602001600682018054610d179061224f565b80601f0160208091040260200160405190810160405280929190818152602001828054610d439061224f565b8015610d905780601f10610d6557610100808354040283529160200191610d90565b820191906000526020600020905b815481529060010190602001808311610d7357829003601f168201915b50505050508152602001600782018054610da99061224f565b80601f0160208091040260200160405190810160405280929190818152602001828054610dd59061224f565b8015610e225780601f10610df757610100808354040283529160200191610e22565b820191906000526020600020905b815481529060010190602001808311610e0557829003601f168201915b505050505081525050848681518110610e3e57610e3d612407565b5b6020026020010181905250600185610e5691906123d3565b945050508080600101915050610a22565b5080935050505090565b60008060009054906101000a900473ffffffffffffffffffffffffffffffffffffffff1673ffffffffffffffffffffffffffffffffffffffff163373ffffffffffffffffffffffffffffffffffffffff1614610f02576040517f08c379a0000000000000000000000000000000000000000000000000000000008152600401610ef9906122f2565b60405180910390fd5b60004790508091505090565b60008054906101000a900473ffffffffffffffffffffffffffffffffffffffff1673ffffffffffffffffffffffffffffffffffffffff163373ffffffffffffffffffffffffffffffffffffffff1614610f9c576040517f08c379a0000000000000000000000000000000000000000000000000000000008152600401610f93906122f2565b60405180910390fd5b8073ffffffffffffffffffffffffffffffffffffffff1660008054906101000a900473ffffffffffffffffffffffffffffffffffffffff1673ffffffffffffffffffffffffffffffffffffffff161461102a576040517f08c379a0000000000000000000000000000000000000000000000000000000008152600401611021906124a8565b60405180910390fd5b816001819055505050565b6000600154905090565b60606000600454905060008060005b838110156110e8578573ffffffffffffffffffffffffffffffffffffffff166002600060018461107e91906123d3565b815260200190815260200160002060010160009054906101000a900473ffffffffffffffffffffffffffffffffffffffff1673ffffffffffffffffffffffffffffffffffffffff16036110db576001836110d891906123d3565b92505b808060010191505061104e565b5060008267ffffffffffffffff81111561110557611104611f2e565b5b60405190808252806020026020018201604052801561113e57816020015b61112b6118e4565b8152602001906001900390816111235790505b50905060005b848110156115ff578673ffffffffffffffffffffffffffffffffffffffff166002600060018461117491906123d3565b815260200190815260200160002060010160009054906101000a900473ffffffffffffffffffffffffffffffffffffffff1673ffffffffffffffffffffffffffffffffffffffff16036115f25760006001826111d091906123d3565b905060006002600083815260200190815260200160002090508060405180610100016040529081600082015481526020016001820160009054906101000a900473ffffffffffffffffffffffffffffffffffffffff1673ffffffffffffffffffffffffffffffffffffffff1673ffffffffffffffffffffffffffffffffffffffff1681526020016002820180546112669061224f565b80601f01602080910402602001604051908101604052809291908181526020018280546112929061224f565b80156112df5780601f106112b4576101008083540402835291602001916112df565b820191906000526020600020905b8154815290600101906020018083116112c257829003601f168201915b505050505081526020016003820180546112f89061224f565b80601f01602080910402602001604051908101604052809291908181526020018280546113249061224f565b80156113715780601f1061134657610100808354040283529160200191611371565b820191906000526020600020905b81548152906001019060200180831161135457829003601f168201915b5050505050815260200160048201805461138a9061224f565b80601f01602080910402602001604051908101604052809291908181526020018280546113b69061224f565b80156114035780601f106113d857610100808354040283529160200191611403565b820191906000526020600020905b8154815290600101906020018083116113e657829003601f168201915b5050505050815260200160058201805461141c9061224f565b80601f01602080910402602001604051908101604052809291908181526020018280546114489061224f565b80156114955780601f1061146a57610100808354040283529160200191611495565b820191906000526020600020905b81548152906001019060200180831161147857829003601f168201915b505050505081526020016006820180546114ae9061224f565b80601f01602080910402602001604051908101604052809291908181526020018280546114da9061224f565b80156115275780601f106114fc57610100808354040283529160200191611527565b820191906000526020600020905b81548152906001019060200180831161150a57829003601f168201915b505050505081526020016007820180546115409061224f565b80601f016020809104026020016040519081016040528092919081815260200182805461156c9061224f565b80156115b95780601f1061158e576101008083540402835291602001916115b9565b820191906000526020600020905b81548152906001019060200180831161159c57829003601f168201915b5050505050815250508486815181106115d5576115d4612407565b5b60200260200101819052506001856115ed91906123d3565b945050505b8080600101915050611144565b5080945050505050919050565b60008060608060608060046000815480929190611628906124c8565b91905055506000600454905060006002600083815260200190815260200160002090508181600001819055508e8160010160006101000a81548173ffffffffffffffffffffffffffffffffffffffff021916908373ffffffffffffffffffffffffffffffffffffffff1602179055508d8160020190816116a891906126bc565b508c8160030190816116ba91906126bc565b508b8160040190816116cc91906126bc565b508a8160050190816116de91906126bc565b50898160060190816116f091906126bc565b508881600701908161170291906126bc565b508a60405161171191906127ca565b60405180910390208f73ffffffffffffffffffffffffffffffffffffffff16837f72e070645b8753b7561512bdcd5680da44ba132de789fec82d235d43ec008d9b60405160405180910390a4818f8c8f8f8f97509750975097509750975050509750975097509750975097915050565b60045481565b60015481565b600034116117d0576040517f08c379a00000000000000000000000000000000000000000000000000000000081526004016117c790612853565b60405180910390fd5b600560008154809291906117e3906124c8565b9190505550600060055490506000600360008381526020019081526020016000209050818160000181905550338160010160006101000a81548173ffffffffffffffffffffffffffffffffffffffff021916908373ffffffffffffffffffffffffffffffffffffffff1602179055503481600201819055503373ffffffffffffffffffffffffffffffffffffffff167f264f630d9efa0d07053a31163641d9fcc0adafc9d9e76f1c37c2ce3a558d2c52346040516118a19190611b3e565b60405180910390a25050565b604051806060016040528060008152602001600073ffffffffffffffffffffffffffffffffffffffff168152602001600081525090565b60405180610100016040528060008152602001600073ffffffffffffffffffffffffffffffffffffffff1681526020016060815260200160608152602001606081526020016060815260200160608152602001606081525090565b6000604051905090565b600080fd5b600080fd5b6000819050919050565b61196681611953565b811461197157600080fd5b50565b6000813590506119838161195d565b92915050565b60006020828403121561199f5761199e611949565b5b60006119ad84828501611974565b91505092915050565b6119bf81611953565b82525050565b600073ffffffffffffffffffffffffffffffffffffffff82169050919050565b60006119f0826119c5565b9050919050565b611a00816119e5565b82525050565b600081519050919050565b600082825260208201905092915050565b60005b83811015611a40578082015181840152602081019050611a25565b60008484015250505050565b6000601f19601f8301169050919050565b6000611a6882611a06565b611a728185611a11565b9350611a82818560208601611a22565b611a8b81611a4c565b840191505092915050565b600061010082019050611aac600083018b6119b6565b611ab9602083018a6119f7565b8181036040830152611acb8189611a5d565b90508181036060830152611adf8188611a5d565b90508181036080830152611af38187611a5d565b905081810360a0830152611b078186611a5d565b905081810360c0830152611b1b8185611a5d565b905081810360e0830152611b2f8184611a5d565b90509998505050505050505050565b6000602082019050611b5360008301846119b6565b92915050565b600081519050919050565b600082825260208201905092915050565b6000819050602082019050919050565b611b8e81611953565b82525050565b611b9d816119e5565b82525050565b606082016000820151611bb96000850182611b85565b506020820151611bcc6020850182611b94565b506040820151611bdf6040850182611b85565b50505050565b6000611bf18383611ba3565b60608301905092915050565b6000602082019050919050565b6000611c1582611b59565b611c1f8185611b64565b9350611c2a83611b75565b8060005b83811015611c5b578151611c428882611be5565b9750611c4d83611bfd565b925050600181019050611c2e565b5085935050505092915050565b60006020820190508181036000830152611c828184611c0a565b905092915050565b600081519050919050565b600082825260208201905092915050565b6000819050602082019050919050565b600082825260208201905092915050565b6000611cd282611a06565b611cdc8185611cb6565b9350611cec818560208601611a22565b611cf581611a4c565b840191505092915050565b600061010083016000830151611d196000860182611b85565b506020830151611d2c6020860182611b94565b5060408301518482036040860152611d448282611cc7565b91505060608301518482036060860152611d5e8282611cc7565b91505060808301518482036080860152611d788282611cc7565b91505060a083015184820360a0860152611d928282611cc7565b91505060c083015184820360c0860152611dac8282611cc7565b91505060e083015184820360e0860152611dc68282611cc7565b9150508091505092915050565b6000611ddf8383611d00565b905092915050565b6000602082019050919050565b6000611dff82611c8a565b611e098185611c95565b935083602082028501611e1b85611ca6565b8060005b85811015611e575784840389528151611e388582611dd3565b9450611e4383611de7565b925060208a01995050600181019050611e1f565b50829750879550505050505092915050565b60006020820190508181036000830152611e838184611df4565b905092915050565b611e94816119e5565b8114611e9f57600080fd5b50565b600081359050611eb181611e8b565b92915050565b60008060408385031215611ece57611ecd611949565b5b6000611edc85828601611974565b9250506020611eed85828601611ea2565b9150509250929050565b600060208284031215611f0d57611f0c611949565b5b6000611f1b84828501611ea2565b91505092915050565b600080fd5b600080fd5b7f4e487b7100000000000000000000000000000000000000000000000000000000600052604160045260246000fd5b611f6682611a4c565b810181811067ffffffffffffffff82111715611f8557611f84611f2e565b5b80604052505050565b6000611f9861193f565b9050611fa48282611f5d565b919050565b600067ffffffffffffffff821115611fc457611fc3611f2e565b5b611fcd82611a4c565b9050602081019050919050565b82818337600083830152505050565b6000611ffc611ff784611fa9565b611f8e565b90508281526020810184848401111561201857612017611f29565b5b612023848285611fda565b509392505050565b600082601f8301126120405761203f611f24565b5b8135612050848260208601611fe9565b91505092915050565b600080600080600080600060e0888a03121561207857612077611949565b5b60006120868a828b01611ea2565b975050602088013567ffffffffffffffff8111156120a7576120a661194e565b5b6120b38a828b0161202b565b965050604088013567ffffffffffffffff8111156120d4576120d361194e565b5b6120e08a828b0161202b565b955050606088013567ffffffffffffffff8111156121015761210061194e565b5b61210d8a828b0161202b565b945050608088013567ffffffffffffffff81111561212e5761212d61194e565b5b61213a8a828b0161202b565b93505060a088013567ffffffffffffffff81111561215b5761215a61194e565b5b6121678a828b0161202b565b92505060c088013567ffffffffffffffff8111156121885761218761194e565b5b6121948a828b0161202b565b91505092959891949750929550565b600060c0820190506121b860008301896119b6565b6121c560208301886119f7565b81810360408301526121d78187611a5d565b905081810360608301526121eb8186611a5d565b905081810360808301526121ff8185611a5d565b905081810360a08301526122138184611a5d565b9050979650505050505050565b7f4e487b7100000000000000000000000000000000000000000000000000000000600052602260045260246000fd5b6000600282049050600182168061226757607f821691505b60208210810361227a57612279612220565b5b50919050565b7f6f6e6c79206f776e6572206f662074686520636f6e74726163742063616e206360008201527f68616e676520746865206c697374696e67207072696365000000000000000000602082015250565b60006122dc603783611a11565b91506122e782612280565b604082019050919050565b6000602082019050818103600083015261230b816122cf565b9050919050565b7f4e6f20646f6e6174696f6e7320617661696c61626c6520666f7220776974686460008201527f726177616c000000000000000000000000000000000000000000000000000000602082015250565b600061236e602583611a11565b915061237982612312565b604082019050919050565b6000602082019050818103600083015261239d81612361565b9050919050565b7f4e487b7100000000000000000000000000000000000000000000000000000000600052601160045260246000fd5b60006123de82611953565b91506123e983611953565b9250828201905080821115612401576124006123a4565b5b92915050565b7f4e487b7100000000000000000000000000000000000000000000000000000000600052603260045260246000fd5b7f4f6e6c7920636f6e7472616374206f776e65722063616e20757064617465206c60008201527f697374696e672070726963652e00000000000000000000000000000000000000602082015250565b6000612492602d83611a11565b915061249d82612436565b604082019050919050565b600060208201905081810360008301526124c181612485565b9050919050565b60006124d382611953565b91507fffffffffffffffffffffffffffffffffffffffffffffffffffffffffffffffff8203612505576125046123a4565b5b600182019050919050565b60008190508160005260206000209050919050565b60006020601f8301049050919050565b600082821b905092915050565b6000600883026125727fffffffffffffffffffffffffffffffffffffffffffffffffffffffffffffffff82612535565b61257c8683612535565b95508019841693508086168417925050509392505050565b6000819050919050565b60006125b96125b46125af84611953565b612594565b611953565b9050919050565b6000819050919050565b6125d38361259e565b6125e76125df826125c0565b848454612542565b825550505050565b600090565b6125fc6125ef565b6126078184846125ca565b505050565b5b8181101561262b576126206000826125f4565b60018101905061260d565b5050565b601f8211156126705761264181612510565b61264a84612525565b81016020851015612659578190505b61266d61266585612525565b83018261260c565b50505b505050565b600082821c905092915050565b600061269360001984600802612675565b1980831691505092915050565b60006126ac8383612682565b9150826002028217905092915050565b6126c582611a06565b67ffffffffffffffff8111156126de576126dd611f2e565b5b6126e8825461224f565b6126f382828561262f565b600060209050601f8311600181146127265760008415612714578287015190505b61271e85826126a0565b865550612786565b601f19841661273486612510565b60005b8281101561275c57848901518255600182019150602085019450602081019050612737565b868310156127795784890151612775601f891682612682565b8355505b6001600288020188555050505b505050505050565b600081905092915050565b60006127a482611a06565b6127ae818561278e565b93506127be818560208601611a22565b80840191505092915050565b60006127d68284612799565b915081905092915050565b7f446f6e6174696f6e20616d6f756e74206d75737420626520677265617465722060008201527f7468616e20300000000000000000000000000000000000000000000000000000602082015250565b600061283d602683611a11565b9150612848826127e1565b604082019050919050565b6000602082019050818103600083015261286c81612830565b905091905056fea2646970667358221220652b0584759a05a8dabd14f22642b684fce2ed19f22da75579129d1df77006a964736f6c63430008180033",
  "linkReferences": {},
  "deployedLinkReferences": {}
}